:020000040800F2
:10000000E80D0020C5000008CD000008CF00000862
:1000100000000000000000000000000000000000E0
:10002000000000000000000000000000D1000008F7
:100030000000000000000000D3000008AD440008EC
:10004000D7000008D7000008D7000008D700000834
:10005000D7000008D7000008D7000008D700000824
:100060000000000021020008D70000083502000847
:10007000D7000008ED450008D7000008D7000008A9
:10008000D70000080000000000000000D7000008B2
:1000900000000000D7000008D7000008D7000008C3
:1000A00000000000D700000800000000795600089A
:1000B0000348854600F050F8004800478159000881
:1000C000E80D00200448804704480047FEE7FEE7AB
:1000D000FEE7FEE7FEE7FEE755450008B100000831
:1000E00030B50B46014600202022012409E00D46D0
:1000F000D5409D4205D31D469540491B2546954058
:1001000040191546521E002DF1DC30BD70B500249B
:100110002546002801DA01244042002901DA0125A0
:100120004942FFF7DDFFAC4200D04042002C00D036
:10013000494270BDD2B201E00270401C491EFBD2A0
:1001400070470022F6E710B513460A4604461946E2
:10015000FFF7F0FF204610BD064C0125064E05E0D6
:10016000E36807CC2B430C3C98471034B442F7D3D8
:10017000FFF7A2FF245F0008445F000870B58C18E9
:100180000578401C6B075B0F01D10378401C2A11D6
:1001900006D10278401C03E006780E70401C491C12
:1001A0005B1EF9D12B0705D40023521E0DD40B7012
:1001B000491CFAE70378401CCB1A921C03E01D7817
:1001C0000D70491C5B1C521EF9D5A142D8D30020EA
:1001D00070BD30B40AB203460846091414460D46F1
:1001E00054434D4364191D886D43A54215D2B02573
:1001F000ED5C240E641B2406E40DE3185B885A436F
:10020000D417640CA218D21310465943CA17520CC3
:100210005118C91380B20904084330BC704700006C
:1002200010B503490720486004F0C2FA10BD000071
:100230000000024004480168C943890402D4012136
:100240004903416070470000000002408030C16DEA
:100250000A7C022A0AD14A6989699162C16DCA6918
:10026000096A9162C16D4A6A896A916201210171CC
:1002700000207047F0B40021002826D0447801788F
:10028000631E6118002B17DD0126421CE507F607E7
:10029000F54202D055786918521C567800255B103B
:1002A00008D097788919D678ED19921C89B2ADB229
:1002B0005B1EF6D1491989B2641E03D400198078F7
:1002C000401881B2080A4018C1B2F0BC0846704715
:1002D0000021418201750246417580329175D175C8
:1002E00011765176FF3091760130C17601774177F2
:1002F0007047002804D010B4019C1EC010BC704789
:1003000070470000262210B54243124B0021D2183C
:10031000118051809180D1809181D181118251824F
:10032000D183D1820B0C13835183840093830A48B9
:100330001184005902F0F0F808480021005902F039
:10034000EBF80748005903F03BFC0648005902F05F
:1003500045FA10BDA008002004070020080700206F
:10036000FC06002014070020F0B583B000250446E9
:10037000403400952278012A3BD001232370026883
:100380009668760770D44F4F4E68BE426ED0966A1C
:100390000F78BB401E4396620123826B1B079A4273
:1003A0001FD0012A1DD0022A1BD0032A19D0042AEB
:1003B00017D0052A15D0062A13D0072A11D00268B3
:1003C0008B6856697607760FB3420AD05369DB080B
:1003D000DB005361006842690B7A5B075B0F1A43CD
:1003E00042610868102807D0112805D0122803D0D0
:1003F0005EE0022003B0F0BD334A9368102809D0B4
:1004000011280AD0012000060343936008681028D1
:1004100006D04DE00120C005F6E701208005F3E796
:100420002B482A490068FFF75BFE0A2148430090E9
:1004300001903DD0274988423FD8002812DDC007EF
:10044000C00F02D00099491E00910199401C491C1F
:1004500088422DDA009A801C521E521E0092884259
:10046000F8DB25E00020F0E71DE0FFE7906A0E785A
:10047000B340984390620868102803D0112801D037
:10048000122815D110498A68102806D0112807D0E3
:100490000120000682438A600AE00120C005F9E7D6
:1004A00001208005F6E7416C2022114341640125BB
:1004B00000202070284603B0F0BD0098401E009038
:1004C000FCD1F5E7011000000027014040420F0079
:1004D00040070020FFFFFF7FF8B5002504460028F5
:1004E00003D0606C002802D008E00120F8BD002095
:1004F000A06440210855204600F0A8F8606C102246
:10050000C006002870DB2068816849076CD4616CE4
:100510001301994302231943616481688907890F94
:10052000012905D10168C9070FD1C16809040CD49C
:10053000C16818239943A3681943C1602068016901
:10054000636889008908194301612068C1683D4BCF
:100550001940C160A069E1698003C9030843216AA9
:100560004B031843636B012B02D001231B0300E0F4
:1005700000231843E36818432369022B09D00023A2
:100580001843236B666A5B0018430123012E02D0D7
:100590000AE00423F4E7002927D0616C20263143C8
:1005A0006164A16C1943A164A16A0E46FF3EC23E7C
:1005B00002D0E66A314308432168CE680643CE6024
:1005C0000126A16B3607B14213D0012911D00229AF
:1005D0000FD003290DD004290BD0052909D00629F5
:1005E00007D0072905D010E028E0012109040843BD
:1005F000DAE721684E69F608F6004E6121684E6917
:10060000278F7F077F0F3E434E612168C9680E4EDA
:100610003140814207D10020A064606C80088000D6
:10062000401C606408E0606C0221884310436064F1
:10063000A06C1843A06401252846F8BD606C1043E7
:100640006064F8E71902FEFFE7FF3F8370B50546D7
:1006500000681D4986B0884233D11C488269411523
:100660000A43826180690324084005901220002615
:100670000090694602960194800600F083F80220FB
:100680000090694602960194114800F07BF8124CE4
:1006900010486660A66020608020E0604000206115
:1006A000800060612020A0610002E061204600F02F
:1006B00023F8002803D07A2108A005F050F9EC6354
:1006C000656206B070BD00000024014000100240C9
:1006D0000004004808000240440800202E2E2F533A
:1006E00072632F73746D3332663078785F68616C33
:1006F0005F6D73702E630000002801D101207047E8
:1007000070B504460220214620310D46487022680B
:1007100011681248A3680140606826691843E368BD
:100720003343184363691843A3691843E3691843C3
:10073000084310600A49206840181421FFF7D0FCD4
:10074000800020640748E0630020A062E06220632C
:100750006063A06301216970287070BD0FC0FFFF46
:10076000F8FFFDBF0000024031B500F0B7F8009C73
:100770000546601C00D0641C00F0B0F8401BA0428D
:10078000FAD338BD0B680022002B7DD0F8B40127C6
:100790000B6897403B4078D04C68022C01D0122C5B
:1007A0000ED1D408A4002418A446246A5507ED0EDF
:1007B0000F26AE40B4430E69AE402643644626621F
:1007C000056856000324B440A446A5430C79A40749
:1007D000A40FB4402C4304604C68012C05D0022CBB
:1007E00003D0112C01D0122C0FD185686446A5438B
:1007F0002C46CD68B5402543856045680C79BD43DE
:10080000E406E40F94402C434460C4686546AC435E
:100810008D68B5402543C5604C68E40045D5274C3C
:10082000A56901263543A561A46995083440009463
:10083000234CAD002F19BC6895072E0F0F25B5402E
:10084000AC430925ED06A84201D100250AE01D4D63
:10085000A84201D1012505E01B4DA84201D1022586
:1008600000E00525B5402543BD60184C25684E685D
:100870009D43F60300D51D43256065684E689D4382
:10088000B60300D51D4301E016E00EE06560A568E3
:100890004E689D43F60200D51D43A560E5684E688D
:1008A0009D43B60200D51D43E5600B68521CD34042
:1008B00000D06CE7F8BC70477047000000100240A1
:1008C0000000014000040048000800480004014006
:1008D000002A01D081617047816270470148006839
:1008E000704700003C07002002480168491C016075
:1008F000704700003C07002010B506480168102230
:1009000011430160032000F007F800F017F8002001
:1009100010BD00000020024010B5044600F0BCF9F4
:100920007D21C900FFF7DCFB00F0E6FB0022214639
:10093000501E00F02FF8002010BD000008B50F4831
:100940008169012211438161816911400091C2696D
:1009500001040A43C261C0690022084000901146A8
:10096000501F00F017F800221146901E00F012F8F8
:1009700003210022081F00F00DF808BD00100240FE
:10098000C106C90E01208840014908607047000077
:1009900000E100E08207D30EFF229A408907090E8A
:1009A000994000280BDA0007000F08388308084830
:1009B0009B001818C36993430B43C36170478308B6
:1009C00004489B001B181868904308431860704740
:1009D00000ED00E000E400E0F8B504460068C00364
:1009E0005BD539480027C069C00008D43648C269C1
:1009F00001040A43C261C069084001270090334DD9
:100A00002868C00511D42868A91508432860FFF795
:100A100065FF06462868C00507D4FFF75FFF801B07
:100A2000642826D82868C005F7D52748006A03211E
:100A30000902084023D062680A4082421FD0224E39
:100A4000306A326A8843012109040A433262326AF9
:100A50008A4332623062C00711D0FFF73FFF316A2C
:100A6000054689070BD41A4EFFF738FF401BB042EA
:100A700001D90320F8BD1448006A8007F4D5124854
:100A8000016A032212029143626811430162002F3E
:100A900003D0C26901048A43C2612078C00706D02E
:100AA0000948016BA2688908890011430163207815
:100AB000800606D50448016B10229143E268114379
:100AC00001630020F8BD00000010024000700040EB
:100AD00088130000F0B50546614889B000680F46EC
:100AE000C007C00FB8420AD25D48016849084900F2
:100AF000394301600068C007C00FB84271D128783F
:100B0000800706D557484168F0229143AA681143EF
:100B100041602878C00754D06868012821D0514925
:100B20000228096822D089075BD54E4C6168890884
:100B3000890001436160FFF7D1FE064669684A48B3
:100B4000012916D06268022925D01207920F38D0E9
:100B50000446FFF7C3FE801BA0422DD9032009B035
:100B6000F0BD4049096889033BD5DEE7890138D5E6
:100B7000DBE762681207920F012A22D00446FFF7D2
:100B8000ADFE801BA042E9D8364840680007800FC0
:100B90000128F4D115E01207920F022A11D0044661
:100BA000FFF79CFE801BA042D8D82E484068000763
:100BB000800F0228F4D104E02A4840680007800F23
:100BC000C7D127480168C907C90FB9420CD90168C4
:100BD00049084900394301600068C007C00FB842A6
:100BE00002D0012009B0F0BD2878400707D51D4884
:100BF0004168072212029143EA68114341601B4A8F
:100C00006C460FCA0FC41A4B164D0FCB0FC46A683F
:100C10000C20114601401748042913D0082911D18E
:100C20009102090F6B465C5CE96A04AB0907090F86
:100C3000595CD20303D5FFF753FA604302E00E4933
:100C40002046484369680D4A0906090F515CC840AF
:100C50000B4908600320FFF75FFE002009B0F0BDDC
:100C6000002002400010024088130000140D00080C
:100C7000240D000800127A0000093D00F05C000815
:100C800040070020034801680122D204114301609B
:100C900070470000001002400148006870470000E3
:100CA000400700200448054900684968044A49058E
:100CB000490F515CC84070474007002000100240B7
:100CC000005D000810B513A00FC888B06C460FC4B3
:100CD00014A30FCB0FC417494A680C2013460340D6
:100CE0001548042B0FD0082B0DD193021C0F6B4617
:100CF0001C5DC96A04AB0907090F595CD20304D50E
:100D0000FFF7EEF9604308B010BD0C4808B060432F
:100D100010BD000002030405060708090A0B0C0DAC
:100D20000E0F10100102030405060708090A0B0C38
:100D30000D0E0F100010024000127A0000093D0055
:100D4000F8B504460078E24DC0074BD0686800074C
:100D5000800F012807D068680007800F022809D19A
:100D60006868C00306D5286880033BD56068002802
:100D70007ED037E0012062680004012A1CD0810087
:100D8000002A01D0052A1BD02A6882432A602868DD
:100D9000884328606068002816D0FFF79FFD06464C
:100DA000286880031ED4FFF799FD801B642878D83B
:100DB00028688003F7D515E0296801432960E9E731
:100DC0002A680A432A60F7E7FFF788FD0646286885
:100DD000800307D5FFF782FD801B642861D828684F
:100DE0008003F7D42078800740D568680007800F1B
:100DF00007D068680007800F022809D16868C0031F
:100E000006D42868800718D5E068012830D114E09E
:100E1000E0680028286818D0012108432860FFF7FF
:100E20005DFD06462868800707D4FFF757FD801B45
:100E3000022836D828688007F7D52868F821884323
:100E40002169C9000843286010E04008400028607C
:100E5000FFF744FD06462868800707D5FFF73EFDEB
:100E6000801B02281DD828688007F7D4207800E06E
:100E70002BE1000728D5E069002813D0696A01201A
:100E800001436962FFF72AFD0646686A80071BD4A2
:100E9000FFF724FD801B022803D8686A8007F7D576
:100EA00012E08DE0686A400840006862FFF716FDB6
:100EB0000646686A800707D5FFF710FD801B0228E9
:100EC0007ED8686A8007F7D42078400768D500206C
:100ED0000090E869C00008D4E869012109070843C7
:100EE000E861E8690840012000907A4F3868C00541
:100EF00011D43868B91508433860FFF7EFFC06468F
:100F00003868C00507D4FFF7E9FC801B642857D870
:100F10003868C005F7D5A06801281ED0002801D088
:100F200005281ED0286A400840002862296A04204B
:100F300081432962A068684E00281BD0FFF7CEFCD1
:100F40000746286A800723D4FFF7C8FCC01BB042BD
:100F500060D8286A8007F7D51AE0296A0120014382
:100F6000E7E7286A042108432862286A0121084328
:100F70002862DFE7FFF7B2FC0746286A800707D53B
:100F8000FFF7ACFCC01BB04244D8286A8007F7D4F6
:100F90000098002804D0E969012000078143E96135
:100FA0002078C0061CD56069012835D0401D51D07D
:100FB000686B042108436863686B4008400000E0E8
:100FC00028E06863FFF78AFC0646686B800707D550
:100FD000FFF784FC801B02281CD8686B8007F7D4BD
:100FE000206A00286FD069680907890F02296CD030
:100FF000012636060228286831D0B0432860FFF762
:101000006DFC0446286880015DD5FFF767FC001B76
:10101000022855D90320F8BD696B04200143696398
:10102000686B012108436863FFF758FC0646686B4C
:10103000800707D4FFF752FC801B0228EAD8686BB0
:101040008007F7D5686BF8218843A169C900084378
:101050006863C5E7696B042081436963F2E7B043C5
:101060002860FFF73BFC07462868800107D5FFF79B
:1010700035FCC01B0228CDD828688001F7D4E86A67
:10108000E16A000900010843E862A16A606A01435D
:1010900068683D2212049043014369602868304328
:1010A0002860FFF71BFC0446286880010BD4FFF77B
:1010B00015FC001B0228ADD828688001F7D502E096
:1010C00028688001A1D40020F8BD0120F8BD0000EF
:1010D0000010024000700040881300000422044900
:1010E0000428086902D09043086170471043FBE769
:1010F00000E000E0704700000B4910B4401E884239
:1011000002D910BC012070470849486108480722ED
:10111000C3691B021B0A4C042343C361002088617E
:101120000A6110BC70470000FFFFFF0000E000E014
:1011300004ED00E010B5FFF7DDFF10BD03462033DE
:101140001A7F012A01D10220704730B401241C7794
:1011500002225A770325CA682D02AA438D680068C7
:101160002A43A502AA434D682A43E502AA430D6813
:101170002A432503AA430D692A436503AA434D69FF
:1011800089692A43A503AA430A43E503AA430A43FC
:1011900042645C770020187730BC704702462032EA
:1011A000137F012B01D10220704770B40123137704
:1011B00002245477046865687026B5436560046846
:1011C00065680E68354365600468A5688026B54388
:1011D000A5600068846849680C43846053770020E8
:1011E000107770BC7047000030B500680F4985B0BB
:1011F000884218D10720022540030324009001955E
:1012000002956946049503940948FFF7BBFA072045
:101210000002009009200195029569460495039407
:10122000C006FFF7AFFA05B030BD0000002C01404A
:1012300000040048F8B5064604462036307F0D46C7
:1012400001280CD00120307702207077002A08D0C6
:10125000042A19D0082A2CD00C2A6ED16EE0022064
:10126000F8BD206803F02AFA20688169082211433A
:1012700081612068816904229143816120688169CC
:101280002A691143816194E0206803F055FA2068CF
:1012900081690122D2021143816120688169521063
:1012A00091438161206881692A6912021143816139
:1012B0007FE02068016AFF22013291430162076AE0
:1012C0004268C1697023994389082B6889000B43E0
:1012D000012149028F43A96809023943374FB842B7
:1012E00008D1C714B943EF683F020F4301158F437C
:1012F000394605E0324FB84202D0324FB84208D1E9
:1013000003273F03BA436F693F011743AA691201DC
:101310003A434260C3616A68C26301622068C1697E
:1013200008221143C1612068C16904229143C1614F
:101330002068C1692A691143C1613AE02068026AE4
:10134000012109038A430262026A4168C769732363
:101350001B029F432B681B023B4301277F03BA43B9
:10136000AF683F031743154A904205D0144A904294
:1013700002D0144A904205D10122920391436A6936
:10138000920111434160C36169680164076220688A
:10139000C1690122D2021143C1612068C2690121E1
:1013A00089028A43C2612068C1692A691202114315
:1013B000C1610120707700203077F8BD002C01401A
:1013C0000044014000480140002801D1012070473D
:1013D00070B5054604462035687F002803D128777C
:1013E000204600F00BF802206877211D206803F0EA
:1013F00021F901206877002070BD000000680749CE
:1014000081B0884207D106488269C1140A438261CB
:1014100080690840009001B070470000002C014036
:1014200000100240002801D10120704770B5054628
:1014300004466035687A002803D12872204600F0FF
:1014400027F8242068722068016849084900016073
:10145000204603F043FB012818D0606A002802D020
:10146000204603F0A1FA206841680922D202914384
:101470004160206881682A22914381602068016868
:10148000012211430160204603F0F4FA70BD000010
:1014900000B500680E4987B0884216D10D488269B0
:1014A000012189030A4382618069084005900C206C
:1014B00000900220019000200290039001200490EF
:1014C00009206946C006FFF75DF907B000BD0000BE
:1014D000003801400010024010B50446406802F098
:1014E000CAFBA1680882000C488210BD10B50068D4
:1014F000012102F027FC10BD002839D010B50446A8
:10150000007E012833D1217B0020012904D002294B
:1015100010D0032929D11EE0A168203108710121D2
:10152000606802F0D1FB0E21E28A615E606802F021
:1015300051FB0CE0A168203108710021606802F0C5
:10154000C3FB1021E28A615E606802F043FB002861
:101550000BD002200AE0A168012020310871A068A8
:10156000618A0182A18A4182F3E70320207610BDBF
:10157000704701230373C181C282037643767047AB
:10158000022303730182C282012101760021417688
:10159000704710B5006802F0A5FB10BD10B540689B
:1015A00002F080FB02F09BFA10BD407E704783681A
:1015B00019880846598880B209040843704783682F
:1015C00099880846D98880B20904084370470146C3
:1015D00001200B7B821E012B08D0022B0CD0032B89
:1015E00003D11223CB5E002B04DB70470E23CB5EAE
:1015F000002BFADA104670471023CB5E002BF9DB84
:101600007047836899890846D98980B209040843DC
:1016100070478368198A0846598A80B209040843CA
:101620007047027B0021012A01D10E21415E08464C
:10163000704710B5406802F027FB10BD10B5006878
:1016400002F079FB10BD81681E20085E7047836838
:10165000598B0846998B80B2090408437047836808
:10166000D98A0846198B80B2090408437047836001
:101670004260016000210173C1810182C182017653
:10168000704703220273418209148182012101768D
:10169000002141767047826851828068818270475C
:1016A00010B504460068032102F04CFB002801D06D
:1016B0000121217610BD10B50068072102F042FB20
:1016C00010BD10B5406802F005FB10BD01B2120C50
:1016D00012048BB21A430D4B001459435843091896
:1016E00008180B494042C013CB43884203DC19461B
:1016F000884200DB01B290B20A041043994203D140
:10170000044980B20904084370470000E64900001C
:10171000FF7F00000180FFFFF0B50546084600F09E
:1017200053F829B22A140B4606B207141546714322
:101730007D43481B1449C5138D4201DD084603E073
:101740001248854200DB28B2250C2D0484B22543C3
:101750000E4CA04203D12D0C0D482D0405437B43B4
:1017600072439818C013884204DCA04201DA214673
:1017700000E001B2A8B20A041043A14203D1054916
:1017800080B209040843F0BDFF7F00000080FFFF26
:10179000018000000180FFFF70B50546084600F09B
:1017A00013F8024629B203B228140E461214054655
:1017B0005E435543751951435843401AED13C11305
:1017C000A8B20904084370BD0122D2038218120492
:1017D0000323920D1B021A40012330B4DB03C1180E
:1017E00089040C0E6300FF252C1B1E496400002A8F
:1017F0001FD0FF3A521E29D0FF3A521E0ED0FF3A98
:10180000012A09D10A5BC95A80B212041043494225
:10181000000C000489B2084330BC7047CA5A80B239
:101820001204095B1043000C000489B230BC084369
:101830007047CA5A095B524280B2120410434942AF
:10184000000C000489B230BC084370470A5B80B2C8
:1018500052421204C95A1043000C000489B230BC31
:1018600008437047085D0008FFB581B017460E4673
:101870000A9D0C9A0B990446866180308262C1628F
:101880000A4800900A4B0B4A21463046FEF731FDCC
:10189000E761049865622062A069A8478021B020B2
:1018A0000155216AA069884705B0F0BDB918000844
:1018B000D1180008D91E000810B50446616A806975
:1018C00088478021B0200155216AA069884710BD52
:1018D000FFB505469BB01C982E4640090027803670
:1018E00014460090002812D0421E0021284603F022
:1018F00060FD00281AD01C98C006C00E1C90F06A2B
:10190000002804D0009A0021521E03F052FD1C98BA
:101910000D2877D201007944097949188F44B70A14
:10192000A8B67272B5B4B3B2B1B0AF000B206946BD
:101930000871C6E220780090052069460871009879
:10194000462852D02CDC0E287AD00DDC0E2855D239
:1019500001007944097949188F44555050625072FA
:101960007272727272727272162869D00BDC0F3842
:10197000072843D201007944097949188F446069E6
:10198000693E3E6060001C2851D004DC172857D007
:10199000182833D154E01D2849D041282ED14FE0DA
:1019A00061284DD012DC4738152827D20100794430
:1019B000097949188F444D4D2222222222224422A5
:1019C000222244444444444444224D00772840D0D9
:1019D0000CDC742824D004DC642831D065280DD1B7
:1019E0002EE0752835D0762808D132E0782830D01E
:1019F00079282ED07D282CD07E282AD00220694636
:101A0000087115E05AE26478F06A2246009903F002
:101A1000D0FC22462846009903F0CBFC074607E09D
:101A200001466278284603F0C4FC074600E001271F
:101A3000002F2CD000231A46F021EC69A86945E25A
:101A4000A1786078090242182846009903F0B1FC99
:101A5000EBE7A178607809024018E178227909045F
:101A60001206891842182846009903F0A2FCDCE708
:101A7000217803206A461071832909D209E0F3E135
:101A8000DCE1CDE1ACE181E16DE143E13AE18FE1FF
:101A900034E1880078444068874400000C0200006C
:101AA000440200000C0200000C020000440200008E
:101AB000280200002802000028020000280200007E
:101AC000280200002802000028020000280200006E
:101AD000280200002802000028020000280200005E
:101AE000280200002802000028020000280200004E
:101AF000280200002802000028020000280200003E
:101B0000280200002802000028020000260400002D
:101B10002604000044020000280200002802000001
:101B2000280200000C0200006002000060020000B9
:101B3000600200006002000060020000600200001D
:101B4000600200006002000060020000600200000D
:101B500060020000600200006002000060020000FD
:101B600060020000600200006002000060020000ED
:101B700060020000600200006002000060020000DD
:101B800060020000600200006002000060020000CD
:101B900060020000600200006002000060020000BD
:101BA00028020000600200006002000060020000E5
:101BB00060020000440200004402000044020000F1
:101BC000280200002802000028020000280200006D
:101BD0000C0200004402000028020000280200005D
:101BE000280200002802000028020000280200004D
:101BF000280200002802000028020000280200003D
:101C0000280200000C0200004402000060020000F4
:101C1000280200002802000028020000280200001C
:101C2000280200006002000060020000280200009C
:101C3000280200000C0200000C0200004402000018
:101C4000440200004402000044020000440200007C
:101C50000C020000280200002802000044020000DC
:101C60006002000028020000280200000C020000B0
:101C7000440200004402000044020000440200004C
:101C8000440200004402000044020000440200003C
:101C90004402000044020000440200000C02000064
:101CA000600200000C020000284603F02BF90090AF
:101CB000401C7DD00123EC696A46F021A869A04749
:101CC0001FB0F0BD284603F01DF90090401C6FD0F6
:101CD0000223EC696A46F021A869A0471FB0F0BD55
:101CE000284603F00FF90090401C61D00423EC69F2
:101CF0006A46F021A869A0471FB0F0BD0320114635
:101D00000871DEE0217807206A461071284603F04A
:101D1000ABF88AE6002002900390049005900690AC
:101D20000790089002AA099005E01318401CC0B261
:101D3000D9701D2803D2B16A095C0929F5D1B16AAD
:101D4000421D8B5C6A461372C21D895C6A465172E1
:101D5000B16A0930085C90722023EC6902AAF02174
:101D6000A869A04766E6617920790902401882B225
:101D70006178207809024018A178E37809041B06ED
:101D8000C9184118284603F0A9F84EE60FA800909C
:101D900021780EAB10AA284603F0B2FA6946382023
:101DA000085E0621484308A9087202124A7200E040
:101DB00087E002148A72000EC8726946888F08A9EB
:101DC00008730012487310A9088808A98873000ACC
:101DD000C8730823EC690AAAF021A869A04770E03B
:101DE000217AE0790902401886B2A1786078090268
:101DF0004018E178227909041206891840182778DA
:101E00000621FEF783F903B2A1796079090240182F
:101E100000B2009032463946284603F0E0FB04E663
:101E2000617820780902401801B2E278A0781202A5
:101E3000801802B2284603F0B1FAFBE50C9408A919
:101E40001E9808750C206946087122490CA803F0F9
:101E500057F8002835D01F48EC6903790268F02153
:101E6000A869A0471FB0F0BD002012AA04E01154D9
:101E7000401CC0B2202803D2B16A095C0029F6D107
:101E80002021091A002912DD1018401ECA0702D0AD
:101E900000224270401C49100906090E07D000229A
:101EA00042708270801C491E0906090EF8D1202359
:101EB000EC6912AAF021A869A047BBE50120694698
:101EC0001EE70123EC6901AAFF21A869A0471FB002
:101ED000F0BD00002800002010B50446616A80694A
:101EE00088478021B0200155216AA069884710BD2C
:101EF00010B502480068FFF75AFB10BD2000002013
:101F000010B502480068FFF77CFB10BD20000020E0
:101F100010B502480068FFF77CFB10BD20000020D0
:101F200010B502480068FFF739FB10BD2000002003
:101F3000F0B59A4C85B0E07801287DD1A0880028C2
:101F400002D0A088401E1AE100206946088094480B
:101F500001F0B7FF9348006800F028FB924801F0B9
:101F6000EAFEC01E102844D20100794409794918BC
:101F70008F440740B0CBDBF0F83F3F3F3F3F3F3F50
:101F8000111D8A480021006800F046FB1121864897
:101F900001F0D8FEF2E085480121006800F03CFB2A
:101FA000002826D01221804801F0CCFEE6E08048CF
:101FB000012101717F488049006801F089FE7F4856
:101FC0000068FFF704FB01467D4801F00DFC00208E
:101FD000A070734802F03FF90421734801F0B2FE8B
:101FE000002806D00020FEF78DF97048006801F047
:101FF000F9F9C3E0724801F07CFC002803D0A07816
:10200000002806D011E000221021674801F075FE7B
:102010000BE06848006801F0A6FD6A4A80B2938A26
:10202000190408431082000C508201A9624803F091
:102030005CFB0390684600E0AEE00421415E584836
:1020400002F0D4F901465C4803F071FC05465A4899
:1020500003F009FC0028A07821D0002823D15048A3
:1020600001F041FD574F0146BA881046FA8880B208
:1020700012041043FFF750FB00B2534E0290306839
:1020800001F0A3FB1021795E0022306801F022FBF1
:1020900000223068029901F01DFB012002E00028B7
:1020A00001D00020A070002D02D00398002865D038
:1020B000464D286800F01EFA424910228A5E5043BD
:1020C0002A680146104600F027FA0521364801F03B
:1020D00039FE53E0374E3249306801F0F9FD394D91
:1020E0002420405D002804D1306801F03CFDE883E5
:1020F000288206212C4801F025FE306801F0B3FD4E
:102100002E480068FFF7F8F938E02C480068FFF720
:10211000F3F92C4D2420405D00282FD1254800687C
:1021200001F021FDE883288228E02048006801F0C2
:1021300015F90020FEF7E6F81A48006800F05AF991
:102140001920400120810821174801F0FBFD15E00E
:1021500008E0FFE72089002810D10921124801F08A
:10216000F1FD0BE013481449006801F0B1FD12487D
:1021700003F051FB00210C4801F0E4FD0120A08098
:10218000E088002802D0E088401EE08020890028F6
:1021900002D02089401E208105B0F0BDEC06002051
:1021A00084030020180700202407002014070020C3
:1021B000C0080020FC06002054030020F806002080
:1021C000FC010020A00800202007002000070020BC
:1021D000F3B5534E81B000245349F4705148086060
:1021E000534F5248386000F0A9FD524801F0A5FD58
:1021F000514800F087F951484F490160514D50480E
:102200002860514802F08AF8281D01684E4A286863
:1022100001F04AFD4D4803F012FB386800904C4B2A
:102220004A4A4C48296801F040FB4B4800F06AF9E3
:102230004A4800F067F94A48474901604948474918
:1022400001604948306203F084FB4949474808600F
:10225000FF300130316A01614649C1604648396842
:1022600000F035F945484449016046494448086052
:1022700001F0ABFA0020FEF745F843490120087150
:10228000286801F0F8FC3B490882000C4882286865
:1022900001F0F1FC01143748364B81823C493B4840
:1022A00008602C312A68FFF7E2F9286801F0F2FC97
:1022B0002A1F1368014600221846FFF75AF9281F03
:1022C000016801980160281D0168324801602449B5
:1022D0000968416023490968C46081603968016107
:1022E0001C4941611849C46181611849016229682A
:1022F00041621049816214390968C162316A4463DC
:1023000084630163391D0968046444648464C4649B
:10231000C163029908600120F07003B0F0BD0000B5
:10232000EC060020FC0400201C07002074020020A2
:10233000140700202407002044010020000700208B
:10234000C8010020FC060020840300205403002064
:10235000A0040020FC010020700100209C0100204E
:102360000407002008070020DC04002030000020C3
:1023700018070020A0080020B40400201007002047
:10238000E804002020070020C0080020C808002022
:10239000F8060020E4080020F0B40546EE1D8C4647
:1023A0000846F93631884900685230887080401CF0
:1023B00080B23080802801D30020308000220224A7
:1023C000AA5E2C5F002328463F2704211219415E94
:1023D0000624045F5B18001D7F1EF6D1FE21695E96
:1023E000D0180818C117490E0818C011B080F0BCE9
:1023F0006046704710B5FF2104460131FDF7A1FE8C
:102400000020FF3401342080608010BDFF210531A1
:10241000085E704708B5FEF73FFC7D210901FDF716
:102420005FFEFEF769FE07490748FFF7D1FE03F09C
:10243000E9FB0648034B00901A1F0121044803F0F2
:10244000E7F808BD2400002020000020A45C00085C
:102450001C00002010B504460078002803D000209E
:10246000208180B210BDA17A606A00F0F6F80D49B3
:102470000246884208D0A08A0146431E608858431D
:102480008018FDF72DFE60806088E18A884201D9BE
:10249000082005E0218B884201D2002000E020893D
:1024A0002081DEE7FFFF00000178002902D0C0880C
:1024B00000B270474188C2698A1A1A21415E008CB5
:1024C0005143CA17120C511809140818F0E7037881
:1024D0000022002B03D00281818841807047416235
:1024E0004280704701462220085E70470146062060
:1024F000085E7047408B704701460420085E7047B5
:10250000008B7047018881804188C180018C4184A3
:10251000002181608162704781607047418470470B
:10252000C180704781807047F0B40422825E062328
:1025300014251624C35E0026455F045F4A43002B22
:1025400009D087684B43F91808D5002F0BDD002B05
:1025500009DD144907E0002181600DE0002F02DA57
:10256000002B00DA1049C3688B4202DB03698B42FF
:1025700001DD836000E081608168877F0B463B411D
:10258000077F3A419A18AA4202DDAE1A2A4603E0B2
:10259000A24201DAA61A224689198160F0BC10B263
:1025A00070470000FFFFFF7F0100008070B5C51D70
:1025B000F935EA68044693891846D38980B21B042A
:1025C0001843D38A128B99B21204114302B20BB290
:1025D000001409145A4348431018C117090C08186D
:1025E0000614286903F07AF8A96848434B21C9000A
:1025F000FDF78CFD014630464843062148430A2139
:10260000FDF784FDC117090C081801142046FFF7D7
:10261000C3FE70BD816B084770B505460026403586
:102620000446002902D0012907D014E081688847B8
:10263000688D6883002808D00DE0688B002809D0D9
:10264000401E0004000C688305D12169204688479C
:10265000012600E00126304670BD426B10474268FB
:102660001047F0B4024640320BB2158D091469438D
:102670009489490063434942CC18E60F3419CB1AB8
:10268000DE0FF31864105B10AD08002C3FDA002B4E
:1026900013DA0421D181E11ACE17B60B711889140F
:1026A0006D18D917C90BC91849144B19E117C90B73
:1026B000091949146C1AC16A68E0002913DC032463
:1026C000D481CC1AE617B60B3419A4142D19DC17D3
:1026D000E40BE318CC17E40B5B1461185B19491485
:1026E0005C1A816A52E00223D381631ADE17B60BAB
:1026F000F3189B14ED18E317DB0B1B195B14EC1A92
:10270000CB17DB0B591849140B19416A3EE0002B1B
:1027100013DB0121D181E11ACE17B60B7118891490
:102720006D18D917C90BC91849144B19E117C90BF2
:10273000091949146C1A016A28E0002913DC0523E1
:10274000D381631ADE17B60BF3189B14ED18E31749
:10275000DB0B1B195B14EC1ACB17DB0B5918491454
:102760000B19016B12E00024D481CC1AE617B60BCA
:102770003419A4142D19DC17E40BE318CC17E40B5F
:102780005B1461185B1949145C1AC169ADB21582FA
:102790009BB25382A4B29482968C012E1CD11E2629
:1027A000965F002ED68C01DDAD1900E0AD1B1582C1
:1027B0002025555F002D02DDB5B25B1901E0B5B2F1
:1027C0005B1B53822223D35E002B02DDABB2E318E6
:1027D00001E0ABB2E31A9382F0BC08478168084776
:1027E000C168084741690847F0B48030C66D0124CC
:1027F00075782746AB06AF40B5783B43AE06274613
:10280000AF403E4333435D030F4B6D0B9D62C06D84
:102810005D690078ED08ED0005435D61C86803253A
:10282000AD02A843C860C8681043C860042018609F
:10283000D868800880002043D8608868034A104028
:10284000001D8860F0BC704700240140E8FFFF7F56
:10285000CAB2122A05D20904090E072901D28A3008
:1028600011547047F0B5054680352A8910210A4376
:102870002A81002747678767C767EF71E96D0446BC
:102880004A788B78634EC030C9789A4213D28B4213
:1028900003D207760121417612E08A4205D20776FB
:1028A0000221417613E0817618E0012101760221B0
:1028B0004176877612E08A4204D20121017647767A
:1028C0000221F0E78B4204D20221017647760121F2
:1028D000E9E7022101760121417687764E48316A87
:1028E000814331624D4860604D48E0612062606222
:1028F000A062E0622063204600F074FDE86D0223D0
:102900008079401C400801014118DB433361EA79BA
:102910000020102A12D23269D24392070BD43361BD
:10292000401C80B2884206D3E879102806D20120E4
:102930005621085302E0EA79102AECD300215822EC
:102940001155A9793348012912D0416C02159143E0
:102950004164E96D0A7C022A0AD14A698969916257
:10296000E96DCA69096A9162E96D4A6A896A916288
:10297000416C0122D203914341642B48294F0078D6
:102980003A5802218A433A5028488268284B1A4014
:1029900010328260C26852085200C260796004221C
:1029A0000260288988432881606F00096067A06FF2
:1029B0000009A067E06F0009E0671E4860601E48DC
:1029C000E0611E4820621E4860621E48A0621E48E8
:1029D000E0621E482063B1691D480140B161F169A0
:1029E0000140F161288870632888B0632888F0630B
:1029F000B16918480143B161F1690143F1610648C9
:102A0000316A014331620020A8712889102188436E
:102A10002881F0BD002C014055050000812C0008E4
:102A2000912E000800000240085F000800240140C9
:102A3000E8FFFF7F012B00082D2F0008FD2F000865
:102A4000CD3000089D310008153200088D32000895
:102A5000F7F700000808000070B4264A122945D292
:102A60000546C0352C7C0023002C0DD9C618A03695
:102A7000B67F8E4204D15A0012188032928B0BE03E
:102A80005B1CDBB29C42F1D8112C05D20346BE334D
:102A9000E1542B7C5C1C2C748824245AE50625D434
:102AA000A40723D4144AD46864086400D460D468AA
:102AB0000325AD02AC43D46001248C4094624118DC
:102AC0008031897A4907490F516104211160916869
:102AD0000A4C2140091D91601168C9434907FBD484
:102AE000116C8AB2590008188030828370BC10467D
:102AF00070470000FFFF000000240140E8FFFF7F57
:102B0000F0B401235A4CDB430246236104464034AF
:102B10000546A67B80355B0CC030062E6FD2370091
:102B20007F443F79FF19BF441F454502021FED6DE9
:102B30006E78AD78AE4202D2458A878A01E0858AF6
:102B4000478A566F761B4B4DAE4201DA0D8004E08A
:102B50009E4201DD0B8000E00E80966FF61BAE42B8
:102B60004ADB9E4244DC49E0ED6DAE78ED78AE4242
:102B700002D2458A878A01E0858A478A966F761B4A
:102B80003C4DAE4201DA4D8004E09E4201DD4B80B7
:102B900000E04E80D66FF61B0227CF5FBE1976424B
:102BA0009E4201DD0B802AE0AE4201DA0D8026E074
:102BB0000E8024E0ED6D6E78ED78AE4202D2458A4B
:102BC000878A01E0858A478A566F761B294DAE4277
:102BD00001DA0D8004E09E4201DD0B8000E00E80F2
:102BE000D66FF61B0027CF5FBE1976429E4201DDED
:102BF0004B8004E0AE4201DA4D8000E04E80037C61
:102C0000002B2AD0C37B1046BE301D5C1A48836857
:102C10001A4E3340103383608368DB435B07FBD578
:102C20000123AB408362531980339B7A5B075B0FB0
:102C30004361C3680325AD02AB43C3600423036053
:102C4000C3685B085B00C360836833401B1D8360FF
:102C5000803210892023184310810888E083488837
:102C6000208408884988401840426084F0BC70473E
:102C7000002C01400180FFFF00240140E8FFFF7F9E
:102C800030B42B490122D2430A6101468031CA790E
:102C90000346C033102A1AD21A7E446F520012180B
:102CA000C032528AA21842675A7E846F52001218AC
:102CB000C032528AA21882679A7EC46F52001218DC
:102CC000C032528AA218C267CA79521CCA711A7CD1
:102CD000002A2BD0174A04241460D4680325AD02BF
:102CE000AC43D460D46864086400D460DC7B0346E1
:102CF000BE33E45C9368104D2B40103393609368AF
:102D0000DB435B07FBD5002393620123A34093625F
:102D100000198030807A4007400F50619068284049
:102D2000001D9060088920221043088130BC704744
:102D3000002C014000240140E8FFFF7FF0B440492F
:102D40004B68042293434B600A604B68082293430C
:102D50004B600A603B4A13680124E4042343136078
:102D6000394B1A68012422431A60FF251A6A12356A
:102D70002A431A6202468032D56D2D7C012D03D183
:102D8000324E1D6A35431D628025ED431D61DE68AC
:102D900080273E43DE605E69012426435E6114881D
:102DA000641E5C62002604464034A684A68DE68438
:102DB0001D61274B3E01DD683543DD608B681725BB
:102DC000AB43ED072B438B608B68DB43FCD58B68F3
:102DD000DB435B07F8D58B68DB43DB06F4D58B68F8
:102DE000DB439B07F0D58B681A4D2B405B1C8B6037
:102DF0000B68DB43DB07FBD1174903460E78174D01
:102E0000D23373510D78174E154BAB510E78164DCA
:102E1000032377593F0C3F041F4377510B78291F39
:102E2000CD5801210D431149CD500021517111712F
:102E3000C0300174C173A184A08DE084F0BC7047E0
:102E40000024014000100240002C01404404000016
:102E500000580140E8FFFF7F085F00080C000240B7
:102E600040240140080002400400024000000240EB
:102E70008030002143790A46012B01D102214271A1
:102E80000379012B02D14023194302710846704790
:102E9000F8B58446803002882149521E0A642149CF
:102EA0008A68214B1A4010328A608A68D2435207DE
:102EB000FBD5C46D012265781646AB06AE40A578F9
:102EC0003343AF061646AE403743E4781646A506B0
:102ED000A6403B4335432B435B035B0B8B62C06DCA
:102EE0004B690078DB08DB0003434B61C8680323B0
:102EF0009B029843C860C86893021843C8600420C6
:102F00000860C868800880001043C8608868064A66
:102F10001040001D8860604600F072FBF8BD0000A4
:102F2000002C014000240140E8FFFF7FF8B5044673
:102F30002F480090204680302146038840310D8A7A
:102F40009C465B1B9EB2C36D01221F899202BE424A
:102F500009D90323CB8100882649401E85B220462B
:102F6000FFF742FC3EE0498A7600691A89B28E4238
:102F700002D25989691A09E0E9198DB2AC4506D81F
:102F8000614601224900D202491B491E8DB29E783A
:102F90000127B106B740DB7839439F0601269E40E2
:102FA000374339434B0313495B0B8B62C06D4B694D
:102FB0000078DB08DB0003434B61C86803239B02F6
:102FC0009843C860C8681043C86004200860C86897
:102FD0000122800880001043C8608868064A1040BB
:102FE000001D886000980564204600F009FBF8BDCC
:102FF000002C014000240140E8FFFF7FF8B50446A3
:103000002F480090204680302146038840314D8A69
:103010009C465B1B9EB2C36D01221F899202BE4279
:1030200009D90323CB8100882649401E85B220465A
:10303000FFF7DAFB3EE0098A7600691A89B28E4210
:1030400002D25989691A09E0E9198DB2AC4506D84E
:10305000614601224900D202491B491E8DB25E78A9
:103060000127B106B740DB7839439F0601269E4011
:10307000374339434B0313495B0B8B62C06D4B697C
:103080000078DB08DB0003434B61C86803239B0225
:103090009843C860C8681043C86004200860C868C6
:1030A0000122800880001043C8608868064A1040EA
:1030B000001D886000980564204600F0A1FAF8BD64
:1030C000002C014000240140E8FFFF7FF8B50446D2
:1030D0002F480090204680302146038840314D8A99
:1030E0009C465B1B9EB2C36D01221F899202BE42A9
:1030F00009D90323CB8100882649401E85B220468A
:10310000FFF772FB3EE0898A7600691A89B28E4227
:1031100002D25989691A09E0E9198DB2AC4506D87D
:10312000614601224900D202491B491E8DB25E78D8
:103130000127B106B740DB7839439F0601269E4040
:10314000374339434B0313495B0B8B62C06D4B69AB
:103150000078DB08DB0003434B61C86803239B0254
:103160009843C860C8681043C86004200860C868F5
:103170000122800880001043C8608868064A104019
:10318000001D886000980564204600F039FAF8BDFB
:10319000002C014000240140E8FFFF7FF8B5044601
:1031A0001A4800902146803120464030CF6D0D886E
:1031B000838ABC460122EE1A3F899202B6B2BE4211
:1031C00005D90323C3810888401E86B213E0408AD4
:1031D0007100181A80B2814203D260464089181AE1
:1031E00008E0D81986B2B54205D801226800D2029B
:1031F000801B401E86B206492046FFF7F5FA00986C
:103200000664204600F0FCF9F8BD0000002C0140E7
:1032100000240140F8B504461A4800902146803148
:1032200020464030CF6D0D88838ABC460122EE1ABD
:103230003F899202B6B2BE4205D90323C3810888F2
:10324000401E86B213E0008A7100181A80B28142D3
:1032500003D260464089181A08E0D81986B2B542F0
:1032600005D801226800D202801B401E86B20649A2
:103270002046FFF7B9FA00980664204600F0C0F92E
:10328000F8BD0000002C014000240140F8B50446C0
:103290002F480090204680302146038840310D8A17
:1032A0009C465B1B9EB2C36D01221F899202BE42E7
:1032B00009D90323CB8100882649401E85B22046C8
:1032C000FFF792FA3EE0898A7600691A89B28E4247
:1032D00002D25989691A09E0E9198DB2AC4506D8BC
:1032E000614601224900D202491B491E8DB29E78D7
:1032F0000127B106B740DB7839439F0601269E407F
:10330000374339434B0313495B0B8B62C06D4B69E9
:103310000078DB08DB0003434B61C86803239B0292
:103320009843C860C8681043C86004200860C86833
:103330000122800880001043C8608868064A104057
:10334000001D886000980564204600F059F9F8BD1A
:10335000002C014000240140E8FFFF7F30B400232F
:1033600058221354803082791949012A12D04A6CAC
:103370000B159A434A64C26D137C022B0AD1536920
:1033800092699A62C36DDA691B6A9362C36D5A6A65
:103390009B6A93624A6C0123DB039A434A640E4999
:1033A0000C4A0978545802239C4354500B498C68AA
:1033B0000B4D2C4010348C60CC6864086400CC60E9
:1033C000536004220A6001899943018130BC70472F
:1033D000002C014000000240085F0008002401406A
:1033E000E8FFFF7FF0B4002358226C4913549B1E62
:1033F0000B610A69D243D207FBD10B61803002888E
:1034000052084A63028852088A6302885208CA63D3
:103410000288521F0A640A69D243D207FBD14A6C60
:1034200001239B021A434A644A6C5B011A434A64B3
:10343000C26D137C022B19D1096A594B194251698B
:103440000AD093698B61C26DD169126A8A61C26DBB
:10345000516A926A8A6109E092698A62C26DD16991
:10346000126A8A62C16D4A6A896A9162017A4D4B19
:10347000CA060121002A44DAC46D0E4665780F465B
:10348000AA06AE40A5783243AE06AF403E43E4788C
:103490003243A5060E46A64035432A435403424A0A
:1034A000640B9462C46D55692478ED08ED002543E2
:1034B00055613E4CDD7F66598E4366510326DD7FA4
:1034C000271DEF593F0C3F043743261DAF51DD7FC9
:1034D00066590E43665104241460D468A408A400FD
:1034E0000C43D460D1680324A402A143D160D16805
:1034F00014152143D16091682D4C2140091D916024
:103500003EE0C56D0E466C78A206A640AC7832430C
:10351000A5060E46A64035432A435403224A640BAF
:103520009462C46D55692478ED08ED00254355611A
:103530001E4CDD7F66597608760066510226DD7FD7
:10354000271DEF593F0C3F043743261DAF51DD7F48
:1035500066590E43665104241460D468A408A4007C
:103560000C43D460D468032189028C43D460D168B1
:1035700014152143D16091680D4C2140091D9160C3
:103580000A4904224A60DB7FCC5802221443CC5003
:10359000018911430181F0BC70470000002C0140FB
:1035A00055050000E95E00080024014000000240CB
:1035B000E8FFFF7F0123582210491354DA1E0A61E5
:1035C00000224A638A63CA630A69D243D207FBD1E5
:1035D0004A6C0123DB031A434A648030C16D0A7CC4
:1035E000022A0AD14A6989699161C16DCA69096A69
:1035F0009161C06D416A806A88617047002C01400A
:10360000F0B40146224B40310A8A5A634A8A9A63CF
:103610008A8ADA631A6C97B21E4A94791E4AA218F3
:103620001E4C1568A6790824B440A54315601C4DAE
:103630001D641568254315601F641A69D243D207BB
:1036400005D00023CA8A0024012A02D003E0012306
:10365000F8E70123CC8202468032117A890614D51C
:1036600010490D680146C031CE7B7600301880309D
:10367000858310892025A8431081C87B401CC0B2D7
:10368000C8730A7C904200D3CC73F0BC18467047D4
:10369000002C01400D5F0008182C0140145F000849
:1036A000FFFF00004024014010B5836842680169B3
:1036B000012B03D9C468A2185B1E05E0012B04D1BD
:1036C0000222825E4A430023836042601046FCF778
:1036D0001DFD10BDF7B5064682B0012001900D46D4
:1036E00031697068FCF712FD864669428C46049881
:1036F00001241F21002839D07046281A009000D5D7
:10370000404201228F1A2346BB40984203D2521CEA
:10371000D2B2202AF6D32746521E97407046002880
:1037200000DA404201228C1A0123A340984203D2BE
:10373000521CD2B2202AF6D30124521E94402800F3
:1037400000D5604601221F218B1A01219940884231
:1037500003D2521CD2B2202AF5D30120521E90402F
:10376000A74218D2874218D23C4617E02A0000D55B
:1037700062460123CF1A2046B840824203D25B1C26
:10378000DBB2202BF6D35B1E9C4034616C430020DF
:103790007460B06015E0844200D304467046604314
:1037A0003461706075803088049948437D21C90078
:1037B000FCF796FC401C0146B06000986043FCF7A3
:1037C000A5FCF060019805B0F0BD0021416041808A
:1037D0008160C16001210161704701468968002054
:1037E000002900D101207047F0B5044687B0C06EB3
:1037F0000090A06E01900E46E180274600214037E0
:1038000079753976F974254639750C35009802F0CA
:1038100002F80021019800F057FA6088704301B265
:10382000009802F079F800221146019800F0D2F9D0
:10383000A8882A88704301B2019800F0CBF9688803
:103840002A88704301B2009802F024F82888218861
:1038500048437D21C900FCF743FC401CA080A868B8
:10386000A0600020F87507B0F0BD014640310A7E27
:10387000497A00208A4200D3012070474030007A04
:1038800070470C2251430818808970470C2251431D
:1038900009180E20085E70470C22514309181020A9
:1038A000085E70474030007D704770B5064668304E
:1038B000049D2EC000240546383D0C362C7521464B
:1038C0006C75783802E0B668641CE4B2002E01D052
:1038D000052CF8D322460C235A43121891602C72FF
:1038E0000088642148437D21C900FCF7F9FBA875D5
:1038F00070BDF0B50446866885B001200390A088AD
:103900002546403500287ED0401EA080287E002815
:1039100005D1687D0028206F05D041688847A088C0
:10392000002870D0C9E0C16800290BD0E97D491C8E
:10393000C9B2E975AA7D914204D9C16888470020BF
:10394000E874E875206F01698847002803D0E87C97
:103950007F2801D2401CE874206FC1680029E97CEF
:1039600004D0AA7D5208914202D0D8E77F29D6D14F
:10397000006800F0B4F80090002800DA404200B27D
:1039800001900620205E0028009802DD002805DC5A
:1039900001E0002802DB0020E874C0E70198698993
:1039A00080B2884205D9206F416888470120687538
:1039B000B5E7A9898842B2D9002007460290E06E97
:1039C00001F064FF206F81688847002E30D002210B
:1039D000715E0198814211DAB068002828D0022176
:1039E000715E04270291F75F0646A060287E0221DF
:1039F000401C2876715E01988142EDDB0221715EE8
:103A00000298091A00E015E00420305EC21B0098FD
:103A10005043FCF77BFBC01901B20022A06E00F0FE
:103A2000D9F80120A08020465C30A060062043E049
:103A30000020A080A0680028287E33D0002802D073
:103A400001280BD00FE0606FFEF7C8FE012028753B
:103A5000606FFEF7C7FE0020E87404E0606FFEF7B9
:103A6000BFFE00202875B088E1883288484301B243
:103A7000A06E00F0AFF87088E1883288484301B248
:103A8000E06E01F007FF3088218848437D21C9009E
:103A9000FCF726FB401CA080B068A060287E401C7C
:103AA00028760AE0297A491E884202D10020039034
:103AB00003E0072801D100202876039805B0F0BD67
:103AC0000C2359430818828170470C235943081866
:103AD000C28170470C23594308180282704701467F
:103AE0000420085E704701460020085E704710B54C
:103AF0000421415ECA03521A0C21415E1046FCF7B4
:103B000005FB00B210BD70B40023CE5E0125047C1D
:103B1000827A002E02DA714289B200E00988868931
:103B20008E4200D20123C6898E4200D9012308218A
:103B3000415E002902DA494289B200E00189468AE1
:103B40008E4201D3002B04D0A24205D2521CD2B225
:103B500002E0A24200D20022A24200D100258272DD
:103B6000284670BC704770B501780546002907D01B
:103B70006C68E868012805D9AA691419401E06E096
:103B8000AC68F6E7012803D1688804040020E860E7
:103B9000012905D0E017000C00190014AC6070BDBD
:103BA000E017000C001906146869FFF798FF301A37
:103BB00001B22869FEF7B8FC01046C60A96070BD11
:103BC0000178012905D110B500690021FEF7A4FC98
:103BD00010BD7047F8B50D4601780126044600294E
:103BE00009D060680714E08BA84216DB2420205E11
:103BF000A84212DC13E0A068C3171B0C18180714A6
:103C0000E08CA84205DA2820205E0026A84204DCC9
:103C100025E02820205EA84208DD00261FE0208C39
:103C2000A84203DD2220205EA842F6DB002A0FD046
:103C30006580A08B7D215043C900FCF751FA401CE0
:103C4000E91B0A040146E0601046FCF75FFA05E054
:103C50002804012905D0A0600020E060A061304662
:103C6000F8BD6060F8E710B504464069FFF737FF1C
:103C70000004606010BDC28D1146028E88B211042E
:103C800008437047C08B70474068C117090C08187B
:103C90000014704701462C20085E7047014624201E
:103CA000085E704740697047426101612A21095CE2
:103CB0000170818D09044160C18D0904816000217A
:103CC0004180C1608161704701700021C16070470F
:103CD0004161704702780021012A01D1C1600121B0
:103CE00008467047027800210B2A04D1092101708F
:103CF0000021818001210846704710B44488037870
:103D00000C439443448082880A4382800A2B07D064
:103D1000002C02D00A2101700B4610BC18467047D7
:103D2000002CFAD10B2101700B46F6E78188408800
:103D300000040843704700787047002101704180FB
:103D40008180704710B4024613780020132B62D292
:103D50001C007C4424792419A7440C13292C464BBD
:103D6000505356595D5D091A1F24373C4100002904
:103D700067D050E0032964D0012962D00C2960D0BB
:103D80004DE007295DD00D295BD00E2959D042E0C6
:103D90000E2956D0072954D03DE00F2951D00729CC
:103DA0004FD038E002294CD007294AD033E0072908
:103DB00047D030E0072944D0102942D0042940D010
:103DC00011293ED001293CD025E0112939D00729FD
:103DD00037D020E0122934D0072932D01BE0042943
:103DE0002FD007292DD016E005292AD0072928D061
:103DF00011E0062925D0072923D00CE0072920D07F
:103E000009E008291DD006E009291AD003E000299D
:103E100017D00C2915D0032911D001290FD007295B
:103E20000DD0548880210C43548094880C43948096
:103E300051880A2B07D0002901D00A21117010BC2B
:103E400070470120FAE70029F9D10B21F6E770B598
:103E50002C3014460D460646FEF74EFB28803046B1
:103E6000FEF744FB208070BD10B5006800212C30A7
:103E7000FEF752FB10BD70B4EC24245CC21DF93275
:103E80006400EC2124186C260D5CA65FD17993792F
:103E90001468591A341900290FD06918994200DBA7
:103EA000C91A490009186C23CB5EE31A147E19461F
:103EB0002141C180136070BC70470421515E631AB8
:103EC000F4E7F3B50446E11D8FB0F9310791897924
:103ED000002002912246491E6A320690049005464F
:103EE00003900A900E920B91002919DD1146029A57
:103EF000D3070122D207D34202D00220085E891CD8
:103F000002260B9A8E5F0023521008D004278019D6
:103F1000CF5F06268E5FDB19091D521EF6D1C01831
:103F20000299491E04D4490009196C228A5E1018AE
:103F30000299FCF7EBF806460B98002820DD029961
:103F40000E98CA070121C907CA4205D00221415E65
:103F5000891B49434D19801C02230B99C35E002223
:103F600049100CD004279B1BC75F5B435D190623D8
:103F7000BF1BC35E7F43BA18001D491EF2D1AD18A6
:103F80000298401E06D4400000196C21415E881B37
:103F90004043451928460299FCF7B8F801463046D7
:103FA0007043C217520E1018079AC011128950435D
:103FB000814201DA01200A90A08A0A217043484315
:103FC000C117090C08180014E17AFCF79FF8109942
:103FD00025460880A080E0350A9E6E73297F01295E
:103FE0000CD001200490287C002840D00498404246
:103FF00006400020002E40D0E87338E0002800DAA8
:1040000040420799498A814228DD214640312822D1
:104010008A5E0B462A21595E52434943891806910C
:104020000C21C203615E101AFCF770F80146079874
:10403000407C4843C217920E101880114843C117A4
:10404000890E0390081881110798007C414303985A
:10405000401A0699814201DD012004900498687499
:10406000204680300699416703998167BBE7204667
:104070001099FFF748FD11B0F0BDE97B491CC9B2AA
:10408000E973079AD27B9142F1D3E873207CA07246
:10409000002011B0F0BDF0B52423C35E0446056EC8
:1040A000D803C21A93B0954201DD226604E0D8031A
:1040B000181A854200DC2066256EE01DF930029555
:1040C0001290C68A354128B2656E954205DCDA0346
:1040D0009A1A954201DD626E00E062660592222521
:1040E0003241655FA76DEB035B1B12B29F4201DD9E
:1040F000A36504E0EE03AE1BB74200DCA665E66DE7
:104100009E4203DCEB03EB1A9E4200DCE365A36DE9
:104110000193129DE76D2E7D8D8833411BB29E4623
:104120005B1B06971DB237413FB2CB88BC46FB1ADA
:104130001EB20B8900270B93CF5F7B431B140C939C
:104140000227CF5F0B9B16217B431F140E97615EE6
:10415000734611915943019B5B1A1821615E1091BE
:1041600069435F181E21615E0C9B0B9159437B18BC
:104170001A21615E0C914143591A01911C21615E23
:104180000F91029B69435D18218D13460B410D91E0
:104190002021615E67468E4659430623E35E5943FC
:1041A0006918029111997943069F7D1A10990E9F03
:1041B00071436D180B9979436D180C995143691A25
:1041C00006910F99059D71436E180D9905460D4195
:1041D000714669431D464D43771B002B01DB0121CE
:1041E00001E00021C9432346403318855A854843DE
:1041F00005B24A43504206B20020205EFDF7E4FAC1
:10420000011400B27043C013694302B2C81300B274
:10421000111A20462C30FEF787F92146E0310A7B3F
:10422000129B521C9D79D2B2954200D100225500BA
:104230002D194035AE8D9E80A8850A7321880818F7
:1042400000B220800199A1650299216606996766EE
:10425000E16513B0F0BDF8B500218165C165016667
:10426000416601800246C180E0329173D1731174BE
:104270005174603A5167C71DF93791673960B97653
:10428000F976BC79002C15D00023E207D20F02D0BA
:104290006C2319520123A2420CDA5D002D1840351F
:1042A000A9855B1C5D002D184035921C5B1CA985FF
:1042B000A242F2DBEC221154B98000212C30FEF72F
:1042C0002BF9F8BD00680121FF300130817670477D
:1042D00000680121FF300130C17670474030028D07
:1042E0001146428D88B21104084370478030806FB8
:1042F0007047FF2315331B5C816D19410A46C16D60
:1043000090B219410904084370478030406F7047EC
:10431000038B0B80808B108070470000F8B504463B
:10432000C61DF9362746B07BE037B87301203877D1
:104330000546002020852421615E2A480091FBF774
:10434000E5FE00B2002808D0C10F0818218D4010EA
:10435000491C6D0021850028F6D129B2E18400981E
:1043600048432149FBF7D2FE20840025A565E56579
:10437000256665662580E580BD73FD733D74214625
:104380007D7480314D678D673560B576F576B446BE
:10439000B67920462146002E15D00023F207D20F11
:1043A00002D06C235D520123B2420CDA5F007F1809
:1043B0004037BD855B1C5F007F184037921C5B1C3B
:1043C000BD85B242F2DBE0310D7361468D80002184
:1043D0002C30FEF7A1F820462C30FEF793F825810B
:1043E000F8BD00005EEA0F00BE280000F0B4C41D56
:1043F000F934E27E0025012A01D10421415EA37E29
:104400000246E032012B2ED00423C35E1E464E43EB
:10441000002E2FDD002B01DA5B421BB2002901DAEE
:10442000494209B2A67A4E43F7173F0FBE1936111B
:1044300036B2B446E67A4E43F117090F89190911CD
:10444000567B09B2012E13D1A7899EB2BE420FD965
:104450008B420DDB63450BDC917B491CC9B2917328
:10446000A37B994206D3012515740021817201E0D6
:10447000002090732846F0BC70470068E030407B15
:10448000704701838283704710B500212C30FEF7FE
:1044900043F810BD70B52C3014460546FEF742F8BF
:1044A00021462846FEF73CF870BD000010B5084CC8
:1044B0002078022805D1FCF717FAFCF73BFE002014
:1044C0002070C0B2401C207000F072F810BD0000D7
:1044D0002A07002070B594B00125122005950090A0
:1044E00010200490069005200024C00403950226A5
:1044F0000A90089609940B946846FCF721FC002862
:1045000000D0FEE707200C900E9401210D960F9429
:104510000CA8FCF7DFFA002800D0FEE710A81095E1
:104520001294FCF759FA002800D0FEE7FCF7AAFB2A
:10453000FCF7B2FB7D21C900FBF7D2FDFCF7DCFDE7
:104540000420FCF7CBFD03210022081FFCF722FA10
:1045500014B070BD13480168012211430160416825
:10456000114A114041600168104A11400160016820
:10457000012292049143016041683F221204914359
:104580004160C16A09090901C162016BFF2214324D
:1045900091430163416B49084900416300218160F7
:1045A00070470000001002400CB8FF08FFFFF6FE45
:1045B0000C480078012814D110B5FDF7B9FC00F0C3
:1045C000B1F900F0C9FE08484188002902D04188AD
:1045D000491E41800188002902D00188491E0180BE
:1045E00010BD7047EF060020440700200F49C86D3A
:1045F000C0680269D243D20705D1C268D243D2074C
:1046000001D1921E0261C86DC0680169C9430906E3
:104610000BD4C168C943090607D410B58021C9432A
:1046200001610348FBF712FE10BD7047F402002041
:1046300074020020F0B402681B4B0124A4071B4D38
:10464000984203D0A04201D0A84203D17026B243C1
:104650004E683243164E174F98420AD0A04208D0F7
:10466000A84206D0144CA04203D0B04201D0B842B8
:1046700004D103242402A243CC6822438024A24311
:104680004C69224302608A68C2620A688262984268
:1046900003D0B04201D0B84201D1096901630121C0
:1046A0004161F0BC70470000002C01400004004054
:1046B000004401400048014000200040F0B4026A7C
:1046C000520852000262056A436882697024A2435C
:1046D00092080C6892001443022295438A68144E93
:1046E0002A43124DA84204D0B04202D0114FB84222
:1046F00006D10827BA43CF681743042297433A46A6
:10470000A84204D0B04202D00A4DA84206D10325E7
:104710002D02AB434D691D438B692B43436084617C
:10472000496841630262F0BC70470000002C014000
:10473000004401400048014070B4026A10239A43CB
:104740000262046A4368826973252D02AA430D68D8
:104750002D021543202294438A6812012243114CF2
:10476000A04208D11446CA688026B44312012243ED
:104770004024A24305E00C4CA04202D00B4CA042C6
:1047800008D10324A402A3434C69A4001C438B69F1
:104790009B0023434360856149688163026270BC6A
:1047A00070470000002C01400044014000480140D7
:1047B000F0B58DB000204F490A90881C07904A8BB5
:1047C00068460282898B41824B484A4C8078002897
:1047D00009D04A4D2868FFF700F8002803D128685F
:1047E000FEF762FF20824648FFF75CF800284CD1B4
:1047F00044480068FFF756FAFFF775F90090424801
:1048000009A90068FDF72BFF0998FCF75FFF074631
:104810000099FCF781FF05461020205E29B2411A5D
:104820003A480068FDF780FE06461220205E2914F3
:10483000411A37480068FDF777FEB1B20004014322
:10484000E182080C208333480068FBF7C2FC009922
:10485000FCF7A2FF06462C4831460068FDF701FF31
:1048600001466846808C20806846C08C6080A780A6
:10487000380CE080A581280CE081079A300C168363
:10488000508300982084012918D01D48FEF7EDFFC1
:104890000546A08869468882E088C8821648006A72
:1048A00000F021FF6946088304A91B48FFF7F3FBCA
:1048B0001948FFF7E0FA002D06D008E00022012198
:1048C0001648FFF71AFA11E01348FFF7DDFD134809
:1048D000FFF731FA042801D0052807D10E48FFF769
:1048E00002F9694608800E4800F03EFF0A980DB0B4
:1048F000F0BD0000A0080020EC06002020070020EA
:10490000FC010020FC060020140700200407002002
:10491000080700201C070020840300202407002033
:1049200054030020F8B51B4DE878012831D11A480E
:1049300000270068FDF78EFD184E04463068FDF72D
:1049400069FE01462143C843154C82B22046FFF759
:10495000D4F92046FFF7EFF90A2802D00B280ED130
:104960000AE03068FDF73AFF3846FBF7CBFC0D480C
:104970000068FDF73FFD02E03068FDF72FFF687823
:10498000012806D129783068FDF767FE688102208A
:104990006870F8BDEC060020100700201407002006
:1049A000240700201807002010B4818CC90707D005
:1049B00001684A6801235B049A43836A1A434A6088
:1049C000818C890707D501684A6801231B049A4333
:1049D000C36A1A434A60818C490707D501684A684F
:1049E00001239B049A43036B1A434A60818C090795
:1049F00007D501684A680123DB039A43436B1A43D6
:104A00004A60818CC90607D50268916801231B039F
:104A10009943836B19439160818C890607D501689E
:104A20008A6801235B039A43C36B1A438A60818CB3
:104A3000490612D503685A6801210905046C8A43A6
:104A400022435A60026C8A4207D1026851680323EC
:104A50005B059943436C19435160818C090607D566
:104A600001684A680123DB04806C9A4302434A6070
:104A700010BC7047F8B500250446C566FBF72EFF4D
:104A800007461449206888421DD10068124E00076D
:104A900009D501213B46002249052046009600F039
:104AA000CBF800280DD12068006840070BD5012104
:104AB0003B46002289052046009600F0BDF80028FC
:104AC00001D00320F8BD202060346072A0722572EE
:104AD0000020F8BD00380140FFFFFF01F8B5044693
:104AE0002369A268E6691A436369102133430020F1
:104AF00026681A43336805464B4F3B4013433360E7
:104B000023685A6803263603B243E66832435A6084
:104B1000236AA26926681A43B3680B273F02BB4386
:104B20001343B360414A126B9207920F06D0012AD9
:104B300008D0022A08D0032A07D101E0002104E0AE
:104B4000022102E0042100E008210122E369D203EE
:104B5000934235D100290ED0022916D004291CD049
:104B6000082924D00125010909010007400F084345
:104B70002168C8602DE0FCF795F8616840004A089C
:104B80008018FBF7ADFA80B2EDE76168284A480863
:104B90008018FBF7A5FA80B2E5E7FCF793F86168A7
:104BA00040004A088018FBF79BFA80B2DBE7616897
:104BB0000122480812048018FBF792FA80B2D2E76B
:104BC000002908D0022911D0042919D0082922D09F
:104BD00001252846F8BDFCF765F861684A08801889
:104BE000FBF77EFA216880B2C860F2E76168114A7B
:104BF00048088018FBF774FA216880B2C860E8E7BB
:104C0000FCF760F861684A088018FBF769FA2168C8
:104C100080B2C860DDE7616848088018FBF760FA79
:104C2000216880B2C860D4E7F369FFFF001002403A
:104C30000024F40000127A00FFB50446006881B039
:104C40000D460A9EC16917462846884321D0002098
:104C5000B84228D1701C1ED0002E06D0FBF73EFEB5
:104C600001460498081AB04215D920680168FF224D
:104C7000A132914301602068816849084900816040
:104C8000202060346072A07200202072032005B0E2
:104C9000F0BD0120DCE72068C1692846884305D0C3
:104CA0000020B842D6D0002005B0F0BD0120F8E7C2
:104CB0000021FF3001300177704710B5FBF708FB8A
:104CC00010BD08B508216A4611700123FF2100F0CC
:104CD00061F808BDF8B5C41DF934227F214E07469E
:104CE000002A3CD0627F05468035C9B2002A0BD02D
:104CF000012A0FD0AB7E99309B1C9A420ED21154E0
:104D0000607F401C60772AE06976388A7882164E88
:104D1000012001E0A9760220607720E0E176002101
:104D20007982216A114E0A6820239A430A60002181
:104D30002177FBF79FFAE17E884207D13A46BC68AB
:104D4000AB7E697E9B323868A04708E00A2069463E
:104D5000087001236A46FF21384600F01BF83046F0
:104D6000F8BD00001C5F00081E5F0008205F0008FF
:104D7000FF300130017F002901D001207047002160
:104D8000417701210177006A016820221143016007
:104D900002207047F8B5054606468035E87D0028B4
:104DA00001D00120F8BD31753446737518461634AC
:104DB00001275B1E002815DDD907F807521E641E67
:104DC000C14203D050786070521C641C5B1C5810A8
:104DD00008D0517861709178A170401E921CA41C7B
:104DE0000028F6D130461430FBF744FAA8750020AD
:104DF0002876FF36EF750136306A0168802211434C
:104E000001600220F8BD30B403468033DA7D0146EC
:104E1000002A1CD01A7E002A09D0012A09D04C7D14
:104E2000A41CA24207D20C461434125D04E00A7D91
:104E300002E04A7D00E09A7DC81DF930046A2285AF
:104E40004C7D1A7EA41CA24203D2521C1A7630BC9E
:104E50007047006A02688024A24302600020D8756F
:104E60000868496830BC084770B58268007D012435
:104E7000800015580F292ED20800784400790018B8
:104E80008744291915072A2A101D2125292929298E
:104E900015002846FCF7D2FB06281DD12846FCF752
:104EA00010FC19E02846FCF7C9FB002803D028466F
:104EB000FCF701FC10E02846FCF7F2FB0CE028466A
:104EC000FCF767FB08E02846FCF710FB04E02846E7
:104ED000FCF702FB00E00024204670BD70B51546CB
:104EE0000A468168007D80000C5806211046FBF7B9
:104EF0000DF901B22A462046FCF73BFB012070BDAC
:104F000000207047F0B503461E7DC068B5004259C9
:104F1000986883B044590020C04324296FD018DC1E
:104F200024293AD20F007F443F79FF19BF445558D6
:104F30005D62686F7984F8898B8D8F939B9FA3B690
:104F40003535DAC9353535F9FDF53535F4F3F23552
:104F5000F1F035296FD00FDC253910291DD20E0054
:104F60007E443679B619B744F1F0F8FCDB72EFEE07
:104F7000EDEC1818EBEAE9E85B2971D01ADC41295D
:104F800065D00CDC36296CD03F296BD0402904D188
:104F9000506AFEF783FE0621484303B0F0BD422964
:104FA0007AD04329F9D119694B5900211C0F092CDA
:104FB00073D08AE172290DD008DC6E292CD06F29BC
:104FC00034D07029E9D1CD4803B0F0BD732901D0A8
:104FD0008129F9D1002003B0F0BD304603B0F0BD07
:104FE000906AFEF7A3FE03B0F0BD906AFEF7A3FE41
:104FF00003B0F0BD2046FCF7D8FA03B0F0BDBCE02A
:105000002046FCF716FB0621484303B0F0BD1068AC
:10501000FDF772FA03B0F0BD1068FDF771FA03B046
:10502000F0BD1068FDF762FA03B0F0BD1068FDF73F
:1050300061FA03B0F0BD09E11068FDF753FA03B05F
:10504000F0BD506808E050680EE0506810E020465F
:10505000FCF7DFFA36E19068FDF74EFA03B0F0BDD9
:105060003FE106E117E19068FDF740FAF6E7906846
:10507000FDF738FAF2E71869415900200B0F092BA8
:1050800000D190690901090F092900D1D0690028D0
:105090003AD001AA694611E003E115E118694159C6
:1050A00000200B0F092B00D190690901090F092974
:1050B00000D1D069002827D06A4601A9FFF728F956
:1050C00022E01869415900200B0F092B00D190698B
:1050D0000901090F092900D1D069002814D001AABB
:1050E00069460FE01869415900200B0F092B00D1C8
:1050F00090690901090F092900D1D069002803D05E
:105100006A4601A9FEF7A3FE69460020085EA5E7EE
:105110002FE02AE025E020E019E00AE005E000E0C9
:1051200037E0106B00F0DAFA98E7D06AFDF7BCF9C7
:1051300094E7D06BFDF76AF990E775E061E04EE027
:105140003BE036E031E02CE027E01EE019E02046AD
:10515000FCF724FA0621484380E72046FCF751FA81
:1051600060E02046FCF74DFAACE05069FEF786FBA4
:1051700074E72046FCF71BFA54E02046FCF717FAC8
:10518000A0E02046FCF71BFA4CE02046FCF717FA9B
:1051900098E02046FCF73DFA44E02046FCF75FFA31
:1051A00040E02046FCF75BFA8CE02046FCF74FFA23
:1051B00038E02046FCF74BFA84E019694B5900218E
:1051C0001C0F092C00D191691B011B0F092B00D169
:1051D000D16900299BD00846FEF785FC3EE7196996
:1051E0004B5900211C0F092C00D191691B011B0F89
:1051F000092B00D1D169002989D00846FEF777FC38
:105200002CE719694B5900211C0F092C00D1916919
:105210001B011B0F092B00D1D169002984D008463E
:10522000FFF767F800B219E719694B5900211C0F05
:10523000092C00D191691B011B0F092B00D1D169E9
:10524000002989D00846FFF754F83BE019694B590B
:1052500000211C0F092C00D191691B011B0F092B88
:1052600000D1D1690029B9D00846FFF737F800B25C
:10527000F4E619694B5900211C0F092C00D19169E2
:105280001B011B0F092B00D1D1690029A6D00846AC
:10529000FFF724F816E0506AFEF7F4FC06214843B5
:1052A000DCE619694B5900211C0F092C00D19169CA
:1052B0001B011B0F092B00D1D16900298ED0084694
:1052C000FFF714F80014C9E691691B011B0F092BA5
:1052D00000D1D169002993D00846FFF716F80014D1
:1052E000BCE62046FCF761F9012800D088E620469C
:1052F000FCF797F906214843B0E600007A84A6340B
:10530000FFB5C168007D81B080000858012544695F
:105310000A9F1E46002C10D020460299FEF7B1FAD3
:105320000399088020460299FEF7B0FA30802046A3
:105330000299FEF7B1FA388000E00025284605B052
:10534000F0BD10B4019C0171C36000218260017541
:10535000046110BC7047000009484188002902D050
:105360004188491E41808188012902D98188491ECE
:1053700081800188012902D90188491E0180704776
:105380002C07002001494F20888070472C070020FF
:1053900001490020888070472C07002010B58468E0
:1053A000007D89B28000120420581143FCF769F98E
:1053B00010BDF0B516460246137DC0689B00946888
:1053C000C058E758012583B034B20C296BD00CDCEF
:1053D0000C2924D20B007B441B79DB189F441A1F35
:1053E0001F231F3A3F444954595E11296FD008DCEE
:1053F0000D2962D00E2965D00F296AD010290ED14F
:105400006CE014297CD015297BD041297AD05B2906
:1054100005D1D8E01179F0B20125814201D80025EB
:10542000DAE01075D8E03006000E07D13846FCF7F8
:105430000AF9014600223846FCF7A2F8F0B201282A
:105440003FD13846FCF7F5F8014600223846FCF714
:1054500090F8C1E000682146FDF764F8BCE0006800
:105460002146FDF75DF8B7E000682146FDF756F8E4
:10547000B2E03846FCF7CDF8010C0904A0B20143B4
:105480003846FCF7FEF8A7E040682146FDF74AF8E9
:10549000A2E040682146FDF743F89DE040682146C0
:1054A000FDF73CF898E03846FCF7B3F881B22004E9
:1054B00001433846FCF7E5F88EE080682146FDF7A9
:1054C00031F889E080682146FDF72AF884E024E07D
:1054D000FFE780682146FDF721F87DE0116900268D
:1054E000C9580A0F092A00D186690901090F09293B
:1054F00000D1C669002E6FD06A4601A9304602E08D
:1055000026E040E05AE0FEF703FF68460022825E94
:1055100021463046FEF7B5FF5EE011690026C95806
:105520000A0F092A00D186690901090F092900D14A
:10553000C669002E50D001AA69463046FEF7E8FE43
:1055400068460021415E22463046FEF79AFF43E05E
:1055500011690026C9580A0F092A00D18669090174
:10556000090F092900D1C669002E35D001AA694664
:105570003046FEF76CFC68460021415E224630460C
:10558000FEF788FF28E011690026C9580A0F092A8A
:1055900000D186690901090F092900D1C669002EC9
:1055A0001AD06A4601A93046FEF751FC684600222F
:1055B000825E21463046FEF76DFF0DE021463846FB
:1055C000FCF769F808E006213046FAF79FFD01B2C2
:1055D00000223846FBF7CDFF284603B0F0BDF8B5F2
:1055E0000E46C168007D1C4680000858069D47692C
:1055F00031463846FEF764FA224631463846FEF711
:1056000064FA2A4631463846FEF764FA0120F8BDAE
:10561000FFB583B0124C11480C9D1249E060CCC913
:10562000CCC04A680968426001600F48FFF745FB3B
:10563000A0680E490091029501900D4B0D4A0A4950
:10564000E068FCF711F903980090069B059A04990D
:10565000E068FFF776FE07B0F0BD000034090020D7
:105660002C07002088080020B0050020B14C00085D
:10567000714D0008954D000810B5164C206AC1699F
:10568000C94389060FD4808CC1B21348FFF722FBAF
:105690000088012802D0022803D004E0FFF772FE40
:1056A00001E0FFF775FE206AC069C043000602D41E
:1056B0000948FFF7A8FB206AC069C043000707D468
:1056C0000548FFF7FEFA206A08210162FFF760FE35
:1056D00010BD0000B0060020B0050020C188408841
:1056E0004843000C7047C088704770B50446008C72
:1056F00000260D46012815D9A169E0694018C11797
:10570000090CE06108180014E080A18A48430A21CE
:105710004843E17A0904FAF7F9FC2880A080208C3C
:10572000401E1CE001280CD0A08828802520005DA8
:10573000002816D029462046FEF7E5F906463046F1
:1057400070BD608C2880A080A18A0A2041432888EF
:105750000004FAF7DBFCE17A4843E0800020208473
:10576000E4E7207CA072EAE7F0B5044687B00120A8
:10577000254620350190E87A0E46012810D00620F3
:10578000218D205E009009180FB22785E17AFAF783
:10579000BDFC6188401860802879012803D036E07C
:1057A0000020085E34E02620205E00280AD0401E3B
:1057B00000B2E0840099002931880ADBC91B09B2D4
:1057C00000910DE00020305E012169710021A1727D
:1057D0001EE0791A09B200910021C9430191009994
:1057E00048432E21615EFAF791FC019948430099E4
:1057F00000B2002904DB0121A9723188081A04E0F3
:10580000A97A002903D03188081800B200E0384690
:10581000208007B0F0BD0021018041808180C180DF
:10582000018181728161C16101840246018520325A
:1058300011715171C38DC3849172D172704700216F
:10584000018041808180C180018181728161C1615B
:10585000018402460185203211715171C38DC384C8
:105860009172D172704710B40346002120331C7925
:105870000A460846012C00D101215B79012B00D199
:105880000122514000D0012010BC7047012120307E
:10589000C1727047F0B504462030007983B00E46DF
:1058A000002828D13504002A27D0A08D7D2150431F
:1058B000C900FAF715FC401C80B201902084E07A00
:1058C00000900620205E02900099FAF71FFC074620
:1058D000A18A0A2041432846FAF718FCC01B00049D
:1058E0000199FAF713FC014600984843A0616684C9
:1058F00002980004E06103B0F0BDA680A18A0A20EE
:1059000041432846FAF702FCE17A4843E080002050
:105910002084668403B0F0BD70B50C460546018551
:105920002046E97AFAF7F2FB68802C8070BD10B44B
:10593000012200290AD00146012320310B71C48DB8
:10594000002C03D14B71002181720A4610BC104615
:1059500070470021018141898180C1807047FEE745
:1059600002E008C8121F08C1002AFAD17047704728
:10597000002001E001C1121F002AFBD17047000086
:1059800090B0FAF7B9FFFEF7A5FD934841690120F1
:105990004004914A014351615169014005915169A7
:1059A0004000014351615169014005915169000175
:1059B000014351615169092701400591C112FF0658
:1059C00001223846FAF784FF0121002209033846F4
:1059D000FAF77EFF0122C0218048FAF779FF032001
:1059E000C002012502260024009069460296019516
:1059F00003943846FAF7C6FEC02000906946029626
:105A0000019503947548FAF7BDFE734840697249E1
:105A1000284348614869042728400090714820269F
:105A2000446084608461C461046244624761C6600A
:105A300005616B4984620160056309154563C162B4
:105A4000FAF74AFD002800D0FEE728460095012518
:105A50002D030290694601956248FAF785FC0028FB
:105A600000D0FEE769465F480097FAF77DFC002802
:105A700000D0FEE70920009069465A48FAF774FC06
:105A8000002800D0FEE7594857498660446001600D
:105A9000FF26013656490661C160032184614161D8
:105AA000FBF792FC002800D0FEE770270EA94F48B4
:105AB0000E970F94FBF772FB002800D0FEE76020E2
:105AC0000594019400900294039404940022694682
:105AD00006944648FBF7AEFB002800D0FEE7042200
