:020000040800F2
:100000006804002001010008FB0C0008330C000804
:10001000F90C000849010008950E000800000000D6
:10002000000000000000000000000000D50D0008E6
:100030004B010008000000001D0D0008D70D00084E
:100040001B0100081B0100081B0100081B01000820
:100050001B0100081B0100081B0100081B01000810
:100060001B0100081B0100081B0100081B01000800
:100070001B0100081B0100081B0100081B010008F0
:100080001B0100081B0100081B0100081B010008E0
:100090001B0100081B0100081B0100081B010008D0
:1000A0001B0100081B0100081B0100081B010008C0
:1000B0001B0100081B0100081B0100081B010008B0
:1000C0001B0100081B0100081B0100081B010008A0
:1000D0001B0100081B0100081B0100081B01000890
:1000E0001B0100081B0100081B010008DFF80CD0F1
:1000F00000F018F800480047B90E00086804002016
:100100000648804706480047FEE7FEE7FEE7FEE7B1
:10011000FEE7FEE7FEE7FEE7FEE7FEE74D0E00081E
:10012000ED000008064C074D06E0E06840F00103D2
:1001300094E8070098471034AC42F6D3FFF7DAFF93
:10014000FC0E00081C0F0008FEE7704770B504465F
:1001500000F0F2F80546601C02D004480078044420
:1001600000F0EAF8401BA042FAD370BD0000002066
:100170002DE9F84FDFF890A100220AF1040B144694
:1001800001274FF00F090BF1040E00BF0B6807FAAF
:1001900004F52B40AB4274D1DFF870C14E68A6EB7A
:1001A0000C0866452BD00DDC032E34D005DC36B3AD
:1001B000012E19D0022E2FD11BE0112E16D0122E97
:1001C0002AD119E0B8F5881F19D006DCB8F5803FB0
:1001D00015D0B8F5801F1FD111E0B8F5001F0ED063
:1001E000B8F5041F18D10AE0CA6815E0CA68121DE4
:1001F00012E0CA6808320FE0CA680C320CE08A6864
:100200002AB1012A4FF0080203D0456104E004221C
:1002100002E0056100E00022FF2B01D8064601E064
:1002200000F104064FEA840501D9A5F12005D6F8AE
:1002300000C009FA05F82CEA080C02FA05F54CEAA8
:10024000050CC6F800C04D68ED0057D5304DAE69BD
:1002500046F00106AE61AD6924F0030605F0010524
:1002600000952C4D06EB050CDCF80850A6074FEA6C
:10027000167809FA08F6B543274EB04202D1002697
:1002800010E03BE0254EB04201D101260AE0244EA9
:10029000B04201D1022605E0224EB04201D1032630
:1002A00000E0042606FA08F62E43CCF808604D68F4
:1002B000DAF80060ED03554601D51E4300E09E4389
:1002C0002E604D68DBF80060AD035D4601D51E432E
:1002D00000E09E432E604D68DEF80060ED0275463A
:1002E00001D51E4300E09E432E604D68AD020E4DC9
:1002F0002E6801D51E4300E09E432E60641C102C26
:10030000FFF444AFBDE8F88F000401400000111075
:10031000001002400000014000080140000C0140B4
:1003200000100140001401400C0401400AB10161B9
:1003300070470904FBE7000001488068704700002F
:1003400000000020024881680278114481607047F3
:1003500000000020074810B5016841F0100101605D
:10036000032000F091F8002000F006F800F024F8D7
:10037000002010BD0020024070B50D4D04464FF422
:100380007A712878B1FBF0F00A490968B1FBF0F006
:1003900000F037FC48B9102C07D200222146501E2D
:1003A00000F052F800206C6070BD012070BD0000AC
:1003B000000000200C000020214808B5816941F0B0
:1003C00001018161816901F001010091C16941F080
:1003D0008051C161C06900F080500090032000F09E
:1003E00053F8002211466FF00B0000F02DF80022A8
:1003F00011466FF00A0000F027F8002211466FF056
:10040000090000F021F800221146501F00F01CF8EE
:1004100000221146101F00F017F800221146901E0E
:1004200000F012F800221146501E00F00DF80548A9
:10043000416821F0E06141F00071416008BD0000B9
:100440000010024000000140F0B40E4B1B680C4647
:10045000C3F30223C3F10705042D00D90425191D98
:10046000072901D2002300E0DB1E012606FA05F170
:10047000491E214099409E40761E16403143F0BCF3
:1004800000F03CBC0CED00E0064900F007020868F3
:100490004FF6FF03184040EA0220034A1043086069
:1004A000704700000CED00E00000FA052DE9F04770
:1004B000DFF83C8105460E46D8F8000000F0070042
:1004C000B0420CD2D8F8001021F007013143C8F82F
:1004D0000010D8F8000000F00700B04263D128787F
:1004E000444C800705D56068A96820F0F0000843F7
:1004F00060602878C00745D06868012816D0216858
:10050000022816D0890700294DDA616821F003011D
:1005100001436160FFF710FF6968074641F28830C8
:1005200001290FD00229814619D027E021688903CB
:10053000E9E78901E7E700BFFFF7FEFEC11B494578
:1005400001D918E081466068C0F381000128F3D129
:1005500018E000BFFFF7F0FEC11B49450BD86068EB
:10056000C0F381000228F5D10CE000BFFFF7E4FEE4
:10057000C11B494502D90320BDE8F087606810F02F
:100580000C0FF3D1D8F80010404601F00701B1423A
:100590000BD9016821F0070131430160006800F0C8
:1005A0000700B04201D00120E6E72878400705D5D2
:1005B0006068E96820F4E06008436060287800071C
:1005C00006D56068296920F4605040EAC100606087
:1005D00000F01CF86168084AC1F30311515CC8407F
:1005E000064908600020FFF7C7FE0020C4E70000AE
:1005F0000020024000100240EC0E00080C00002019
:1006000001480068704700000C00002012A185B06E
:100610000FC98DE80F0014A0144A006804905168B7
:10062000134801F00C03042B10D0082B0ED1C1F39A
:100630008343C9031DF803000AD5516804AAC1F316
:100640004041515C0A4A5043B0FBF1F005B070479D
:1006500008494843FAE700000203040506070809B1
:100660000A0B0C0D0E0F10100102000000100240CA
:1006700000127A0000093D002DE9F84F0446007889
:10068000B94DC00748D06868C0F38100012807D081
:100690006868C0F38100022809D16868C00306D5E4
:1006A0002868800338D5606800286FD034E060681F
:1006B000B0F5803F0BD010B1B0F5A02F11D0286855
:1006C00020F480302860286820F4802002E0286828
:1006D00040F480302860606888B1FFF72DFE064640
:1006E00009E0286840F480202860F0E7FFF724FE46
:1006F000801B642875D828688003F7D50CE0FFF7C5
:100700001BFE064605E000BFFFF716FE801B6428AF
:10071000F0D828688003F7D42078944E80074FF0F3
:1007200001094FF000083BD5686810F00C0F07D0A6
:100730006868C0F38100022809D16868C00306D444
:100740002868800714D5206901281FD110E020698E
:10075000B0B1C6F80090FFF7EFFD074605E000BF17
:10076000FFF7EAFDC01B0228C4D828688007F7D528
:100770002868616920F0F80040EAC10028600FE0B5
:10078000C6F80080FFF7D8FD074606E0E9E000BFA5
:10079000FFF7D2FDC01B022823D828688007F7D4B2
:1007A000207800072CD57248A169D9B1C0F8009013
:1007B000FFF7C2FD074604E0FFF7BEFDC01B02289D
:1007C0000FD8686A8007F7D56A484FF4FA51006875
:1007D000B0FBF1F0009000BF0098411E0091FAD2EA
:1007E0000EE080E0C0F80080FFF7A6FD074604E0B9
:1007F000FFF7A2FDC01B022875D8686A8007F7D4EE
:100800002078400760D5E8690027C00008D4E8696F
:1008100040F08050E861E869012700F080500090C6
:1008200055480168C90513D40168834641F48071B5
:100830000160FFF781FD824606E000BFFFF77CFD07
:10084000A0EB0A0064284ED8DBF80000C005F5D5FF
:10085000E06801280AD008B1052813D0286A20F0E2
:1008600001002862286A20F0040002E0286A40F0B3
:1008700001002862E06841F2883B98B1FFF75CFD17
:1008800082460BE0286A40F004002862EEE700BFD1
:10089000FFF752FDA0EB0A0159455AD8286A800794
:1008A000F6D50CE0FFF748FD824605E0FFF744FD72
:1008B000A0EB0A0159454CD8286A8007F6D41FB12D
:1008C000E86920F08050E861E06988B36968C1F3A5
:1008D0008101022945D00228C6F8608004D0FFF7C4
:1008E0002BFD044638E034E0FFF726FD074604E020
:1008F000FFF722FDC01B02282BD828688001F7D4FF
:10090000206AB0F5803F05D16868A16820F4003006
:1009100008436860D4E908010843696821F4741148
:1009200008436860C6F86090FFF706FD044606E0DD
:1009300015E000BFFFF700FD001B022809D828685A
:100940008001F7D50BE000BFFFF7F6FC001B022883
:1009500002D90320BDE8F88F28688001F4D4002074
:10096000F8E70120F6E700000010024000004242D4
:10097000800442420C0000200070004070B504006A
:1009800005D00025A56294F8510010B104E00120C3
:1009900070BD204600F034F8022084F85100206831
:1009A000016821F040010160D4E901010843D4E964
:1009B00003121143084361690843218B01F400715C
:1009C0000843E1690843216A0843A16A0843216892
:1009D0000860A069042101EA1040616A08432168A7
:1009E00048602168E06A08612068C16921F40061FB
:1009F000C1616565012084F85100002070BD0000D0
:100A000030B50068194985B088422CD118488169F1
:100A100041F4805181618069022400F48050049087
:100A20004FF40040CDE900040325694603951148C1
:100A3000FFF79EFB2820CDE900040F4C6946039583
:100A40002046FFF795FB00211020CDE9000102911F
:100A500069462046FFF78CFB0848416841F0E06199
:100A600041F00101416005B030BD0000003001409F
:100A70000010024000080140000C0140000001404D
:100A80002DE9F84F044690F8500000269946174685
:100A90000D4601280DD04FF0010B84F850B0FFF740
:100AA0004BFC804694F85100B246012804D002263F
:100AB00094E00220BDE8F88F002D7BD0002F79D084
:100AC000032084F85100C4F854A02563A786E78664
:100AD000C4F838A0A4F83CA0A4F83EA0C4F844A0F0
:100AE000C4F840A0A068B0F5004F04D120680168A8
:100AF00041F48041016020680168490603D401681F
:100B000041F040010160E068B0F5006F606804D01A
:100B100030B3E08E012823D03EE010B1E08E0128F2
:100B20001AD135F8021B206805E020688168890722
:100B300006D535F8021BC160E08E401EE0860BE052
:100B4000B9F1000F34D0B9F1FF3F05D0FFF7F4FB46
:100B5000A0EB080149452BD2E08E0028E5D11EE02C
:100B6000216815F8010B087306E020688168890781
:100B700006D515F8011B0173E08E401EE0860BE0E0
:100B8000B9F1000F14D0B9F1FF3F05D0FFF7D4FB46
:100B9000A0EB080149450BD2E08E0028E5D14B4679
:100BA000012202212046CDF8008000F0C8F810B1E3
:100BB000032613E011E042464946204600F0AFF814
:100BC00018B101262020606508E0A06818B92068E7
:100BD000C16880680090606D00B1012684F851B052
:100BE00084F850A0304665E74FF0E02104280869FA
:100BF00003D020F004000861704740F00400FAE7D9
:100C0000704710B5401EB0F1807F01D3012010BDA8
:100C10004FF0E02460610F21601700F06FF80020B2
:100C2000A06107202061002010BD10B5FFF7E8FF8C
:100C300010BDFEE730B5174885B0816941F020014D
:100C40008161816901F020010491816941F0040111
:100C50008161816901F004010491816941F0080119
:100C6000816180690C4D00F008004FF4807404909D
:100C7000002221462846FFF759FB0120CDE900401C
:100C8000002002900220039069462846FFF770FA80
:100C900005B030BD00100240000C0140114810B5F5
:100CA0000F4901604FF48271416000218160C16091
:100CB0004FF480220161C0E905121022C0E907212A
:100CC000416281620A21C162FFF758FE002805D007
:100CD000BDE81040452104A000F0DDB810BD0000C3
:100CE00000300140100000202E2E2F5372632F730E
:100CF00070692E6300000000FEE770470907090EC7
:100D0000002806DA00F00F0000F1E02080F8141D42
:100D1000704700F1E02080F800147047704738B544
:100D20000B46009204460022802100F008F80028BB
:100D300004D0606D40F020006065032038BD2DE9CF
:100D4000F0411D4617460E460446DDF8188035E092
:100D5000681C33D02DB1FFF7EFFAA0EB0800A842D2
:100D60002CD32068416821F0E00141606068B0F553
:100D7000827F0BD1A068B0F5004F02D0B0F5806F34
:100D800004D12068016821F040010160A06AB0F53B
:100D9000005F0AD1206801684DF6FF7211400160C2
:100DA0002068016841F400510160012084F851007D
:100DB000002084F850000320BDE8F081206880689E
:100DC00036EA000004D00020B842C1D10020F3E789
:100DD0000120F9E7704710B5FFF7B4FABDE81040FD
:100DE000FFF723BF30B58FB001210804CDE9001013
:100DF0000024029402250491CDE907504FF4E0103D
:100E000009906846FFF738FC00B1FEE70F20CDE9F6
:100E10000A054FF48060CDE90C4002210AA80E9427
:100E2000FFF744FB00B1FEE7FFF7EAFB4FF47A71EE
:100E3000B0FBF1F0FFF7E5FE0420FFF7D5FE00223E
:100E40001146501EFFF700FB0FB030BD0D48016882
:100E500041F00101016041680B4A114041600168A5
:100E60000A4A11400160016821F480210160416853
:100E700021F4FE0141604FF41F0181600449C00369
:100E800008607047001002400000FFF8FFFFF6FE08
:100E900008ED00E0FEE7FEE702E008C8121F08C107
:100EA000002AFAD170477047002001E001C1121FEB
:100EB000002AFBD17047000008B5FFF74BFAFFF797
:100EC00091FFFFF7B7FEFFF7E9FE01254FF47A74B3
:100ED0008DF800502346012269460348FFF7D0FDF4
:100EE0006420FFF733F9F3E7100000200000000052
:100EF0000000000001020304060708091C0F000897
:100F00000000002010000000980E00082C0F0008C0
:100F10001000002058040000A80E00080100000086
:0C0F2000100000000000000000A24A04C5
:04000005080000ED02
:00000001FF
